{
  "contractName": "SimpleStorage",
  "abi": [
    {
      "constant": true,
      "inputs": [],
      "name": "userCount",
      "outputs": [
        {
          "name": "",
          "type": "uint256"
        }
      ],
      "payable": false,
      "stateMutability": "view",
      "type": "function",
      "signature": "0x07973ccf"
    },
    {
      "constant": true,
      "inputs": [
        {
          "name": "",
          "type": "uint256"
        }
      ],
      "name": "posts",
      "outputs": [
        {
          "name": "postIpfsHash",
          "type": "string"
        },
        {
          "name": "date",
          "type": "string"
        },
        {
          "name": "author",
          "type": "address"
        }
      ],
      "payable": false,
      "stateMutability": "view",
      "type": "function",
      "signature": "0x0b1e7f83"
    },
    {
      "constant": true,
      "inputs": [],
      "name": "postCount",
      "outputs": [
        {
          "name": "",
          "type": "uint256"
        }
      ],
      "payable": false,
      "stateMutability": "view",
      "type": "function",
      "signature": "0x17906c2e"
    },
    {
      "constant": true,
      "inputs": [],
      "name": "candidatesCount",
      "outputs": [
        {
          "name": "",
          "type": "uint256"
        }
      ],
      "payable": false,
      "stateMutability": "view",
      "type": "function",
      "signature": "0x2d35a8a2"
    },
    {
      "constant": true,
      "inputs": [
        {
          "name": "",
          "type": "uint256"
        }
      ],
      "name": "users",
      "outputs": [
        {
          "name": "id",
          "type": "uint256"
        },
        {
          "name": "userIpfsHash",
          "type": "string"
        },
        {
          "name": "friendsCount",
          "type": "uint256"
        },
        {
          "name": "friends",
          "type": "string"
        }
      ],
      "payable": false,
      "stateMutability": "view",
      "type": "function",
      "signature": "0x365b98b2"
    },
    {
      "constant": false,
      "inputs": [
        {
          "name": "x",
          "type": "string"
        }
      ],
      "name": "set",
      "outputs": [],
      "payable": false,
      "stateMutability": "nonpayable",
      "type": "function",
      "signature": "0x4ed3885e"
    },
    {
      "constant": true,
      "inputs": [],
      "name": "get",
      "outputs": [
        {
          "name": "",
          "type": "string"
        }
      ],
      "payable": false,
      "stateMutability": "view",
      "type": "function",
      "signature": "0x6d4ce63c"
    },
    {
      "constant": false,
      "inputs": [
        {
          "name": "_userIpfsHash",
          "type": "string"
        },
        {
          "name": "_address",
          "type": "uint256"
        }
      ],
      "name": "addNewUser",
      "outputs": [],
      "payable": false,
      "stateMutability": "nonpayable",
      "type": "function",
      "signature": "0xad3b5577"
    },
    {
      "constant": false,
      "inputs": [
        {
          "name": "_userIpfsHash",
          "type": "string"
        },
        {
          "name": "_address",
          "type": "uint256"
        }
      ],
      "name": "updateUser",
      "outputs": [],
      "payable": false,
      "stateMutability": "nonpayable",
      "type": "function",
      "signature": "0x2bf9866f"
    },
    {
      "constant": false,
      "inputs": [
        {
          "name": "_address",
          "type": "uint256"
        }
      ],
      "name": "getUserByAddress",
      "outputs": [
        {
          "name": "id",
          "type": "uint256"
        },
        {
          "name": "userIpfsHash",
          "type": "string"
        },
        {
          "name": "friends",
          "type": "string"
        }
      ],
      "payable": false,
      "stateMutability": "nonpayable",
      "type": "function",
      "signature": "0x2ab59520"
    },
    {
      "constant": false,
      "inputs": [
        {
          "name": "_postIpfsHash",
          "type": "string"
        },
        {
          "name": "_date",
          "type": "string"
        }
      ],
      "name": "addNewPost",
      "outputs": [],
      "payable": false,
      "stateMutability": "nonpayable",
      "type": "function",
      "signature": "0x3a3a1ec5"
    },
    {
      "constant": false,
      "inputs": [
        {
          "name": "_address",
          "type": "uint256"
        },
        {
          "name": "_friend",
          "type": "string"
        }
      ],
      "name": "addFriend",
      "outputs": [],
      "payable": false,
      "stateMutability": "nonpayable",
      "type": "function",
      "signature": "0x56a7d90a"
    }
  ],
  "bytecode": "0x608060405234801561001057600080fd5b50611659806100206000396000f3fe6080604052600436106100ba576000357c0100000000000000000000000000000000000000000000000000000000900463ffffffff16806307973ccf146100bf5780630b1e7f83146100ea57806317906c2e1461023d5780632ab59520146102685780632bf9866f1461038f5780632d35a8a214610461578063365b98b21461048c5780633a3a1ec5146105ba5780634ed3885e1461071957806356a7d90a146107e15780636d4ce63c146108b3578063ad3b557714610943575b600080fd5b3480156100cb57600080fd5b506100d4610a15565b6040518082815260200191505060405180910390f35b3480156100f657600080fd5b506101236004803603602081101561010d57600080fd5b8101908080359060200190929190505050610a1b565b6040518080602001806020018473ffffffffffffffffffffffffffffffffffffffff1673ffffffffffffffffffffffffffffffffffffffff168152602001838103835286818151815260200191508051906020019080838360005b8381101561019957808201518184015260208101905061017e565b50505050905090810190601f1680156101c65780820380516001836020036101000a031916815260200191505b50838103825285818151815260200191508051906020019080838360005b838110156101ff5780820151818401526020810190506101e4565b50505050905090810190601f16801561022c5780820380516001836020036101000a031916815260200191505b509550505050505060405180910390f35b34801561024957600080fd5b50610252610b95565b6040518082815260200191505060405180910390f35b34801561027457600080fd5b506102a16004803603602081101561028b57600080fd5b8101908080359060200190929190505050610b9b565b604051808481526020018060200180602001838103835285818151815260200191508051906020019080838360005b838110156102eb5780820151818401526020810190506102d0565b50505050905090810190601f1680156103185780820380516001836020036101000a031916815260200191505b50838103825284818151815260200191508051906020019080838360005b83811015610351578082015181840152602081019050610336565b50505050905090810190601f16801561037e5780820380516001836020036101000a031916815260200191505b509550505050505060405180910390f35b34801561039b57600080fd5b5061045f600480360360408110156103b257600080fd5b81019080803590602001906401000000008111156103cf57600080fd5b8201836020820111156103e157600080fd5b8035906020019184600183028401116401000000008311171561040357600080fd5b91908080601f016020809104026020016040519081016040528093929190818152602001838380828437600081840152601f19601f82011690508083019250505050505050919291929080359060200190929190505050610d44565b005b34801561046d57600080fd5b50610476610d79565b6040518082815260200191505060405180910390f35b34801561049857600080fd5b506104c5600480360360208110156104af57600080fd5b8101908080359060200190929190505050610d7f565b604051808581526020018060200184815260200180602001838103835286818151815260200191508051906020019080838360005b838110156105155780820151818401526020810190506104fa565b50505050905090810190601f1680156105425780820380516001836020036101000a031916815260200191505b50838103825284818151815260200191508051906020019080838360005b8381101561057b578082015181840152602081019050610560565b50505050905090810190601f1680156105a85780820380516001836020036101000a031916815260200191505b50965050505050505060405180910390f35b3480156105c657600080fd5b50610717600480360360408110156105dd57600080fd5b81019080803590602001906401000000008111156105fa57600080fd5b82018360208201111561060c57600080fd5b8035906020019184600183028401116401000000008311171561062e57600080fd5b91908080601f016020809104026020016040519081016040528093929190818152602001838380828437600081840152601f19601f8201169050808301925050505050505091929192908035906020019064010000000081111561069157600080fd5b8201836020820111156106a357600080fd5b803590602001918460018302840111640100000000831117156106c557600080fd5b91908080601f016020809104026020016040519081016040528093929190818152602001838380828437600081840152601f19601f820116905080830192505050505050509192919290505050610edf565b005b34801561072557600080fd5b506107df6004803603602081101561073c57600080fd5b810190808035906020019064010000000081111561075957600080fd5b82018360208201111561076b57600080fd5b8035906020019184600183028401116401000000008311171561078d57600080fd5b91908080601f016020809104026020016040519081016040528093929190818152602001838380828437600081840152601f19601f820116905080830192505050505050509192919290505050610fc0565b005b3480156107ed57600080fd5b506108b16004803603604081101561080457600080fd5b81019080803590602001909291908035906020019064010000000081111561082b57600080fd5b82018360208201111561083d57600080fd5b8035906020019184600183028401116401000000008311171561085f57600080fd5b91908080601f016020809104026020016040519081016040528093929190818152602001838380828437600081840152601f19601f820116905080830192505050505050509192919290505050610fda565b005b3480156108bf57600080fd5b506108c86111bb565b6040518080602001828103825283818151815260200191508051906020019080838360005b838110156109085780820151818401526020810190506108ed565b50505050905090810190601f1680156109355780820380516001836020036101000a031916815260200191505b509250505060405180910390f35b34801561094f57600080fd5b50610a136004803603604081101561096657600080fd5b810190808035906020019064010000000081111561098357600080fd5b82018360208201111561099557600080fd5b803590602001918460018302840111640100000000831117156109b757600080fd5b91908080601f016020809104026020016040519081016040528093929190818152602001838380828437600081840152601f19601f8201169050808301925050505050505091929192908035906020019092919050505061125d565b005b60025481565b6004602052806000526040600020600091509050806000018054600181600116156101000203166002900480601f016020809104026020016040519081016040528092919081815260200182805460018160011615610100020316600290048015610ac75780601f10610a9c57610100808354040283529160200191610ac7565b820191906000526020600020905b815481529060010190602001808311610aaa57829003601f168201915b505050505090806001018054600181600116156101000203166002900480601f016020809104026020016040519081016040528092919081815260200182805460018160011615610100020316600290048015610b655780601f10610b3a57610100808354040283529160200191610b65565b820191906000526020600020905b815481529060010190602001808311610b4857829003601f168201915b5050505050908060020160009054906101000a900473ffffffffffffffffffffffffffffffffffffffff16905083565b60015481565b6000606080610ba86114df565b600360008681526020019081526020016000206080604051908101604052908160008201548152602001600182018054600181600116156101000203166002900480601f016020809104026020016040519081016040528092919081815260200182805460018160011615610100020316600290048015610c6a5780601f10610c3f57610100808354040283529160200191610c6a565b820191906000526020600020905b815481529060010190602001808311610c4d57829003601f168201915b5050505050815260200160028201548152602001600382018054600181600116156101000203166002900480601f016020809104026020016040519081016040528092919081815260200182805460018160011615610100020316600290048015610d165780601f10610ceb57610100808354040283529160200191610d16565b820191906000526020600020905b815481529060010190602001808311610cf957829003601f168201915b5050505050815250509050806000015181602001518260600151819150809050935093509350509193909250565b600060036000838152602001908152602001600020905082816001019080519060200190610d73929190611508565b50505050565b60055481565b6003602052806000526040600020600091509050806000015490806001018054600181600116156101000203166002900480601f016020809104026020016040519081016040528092919081815260200182805460018160011615610100020316600290048015610e315780601f10610e0657610100808354040283529160200191610e31565b820191906000526020600020905b815481529060010190602001808311610e1457829003601f168201915b505050505090806002015490806003018054600181600116156101000203166002900480601f016020809104026020016040519081016040528092919081815260200182805460018160011615610100020316600290048015610ed55780601f10610eaa57610100808354040283529160200191610ed5565b820191906000526020600020905b815481529060010190602001808311610eb857829003601f168201915b5050505050905084565b6001600081548092919060010191905055506060604051908101604052808381526020018281526020013373ffffffffffffffffffffffffffffffffffffffff168152506004600060015481526020019081526020016000206000820151816000019080519060200190610f54929190611588565b506020820151816001019080519060200190610f71929190611588565b5060408201518160020160006101000a81548173ffffffffffffffffffffffffffffffffffffffff021916908373ffffffffffffffffffffffffffffffffffffffff1602179055509050505050565b8060009080519060200190610fd6929190611508565b5050565b600060036000848152602001908152602001600020905080600201600081548092919060010191905055506110e0816003018054600181600116156101000203166002900480601f0160208091040260200160405190810160405280929190818152602001828054600181600116156101000203166002900480156110a05780601f10611075576101008083540402835291602001916110a0565b820191906000526020600020905b81548152906001019060200180831161108357829003601f168201915b50505050506040805190810160405280600181526020017f3b0000000000000000000000000000000000000000000000000000000000000081525061130c565b8160030190805190602001906110f7929190611508565b5061119e816003018054600181600116156101000203166002900480601f0160208091040260200160405190810160405280929190818152602001828054600181600116156101000203166002900480156111935780601f1061116857610100808354040283529160200191611193565b820191906000526020600020905b81548152906001019060200180831161117657829003601f168201915b50505050508361130c565b8160030190805190602001906111b5929190611508565b50505050565b606060008054600181600116156101000203166002900480601f0160208091040260200160405190810160405280929190818152602001828054600181600116156101000203166002900480156112535780601f1061122857610100808354040283529160200191611253565b820191906000526020600020905b81548152906001019060200180831161123657829003601f168201915b5050505050905090565b6002600081548092919060010191905055506080604051908101604052806002548152602001838152602001600081526020016020604051908101604052806000815250815250600360008381526020019081526020016000206000820151816000015560208201518160010190805190602001906112dd929190611588565b50604082015181600201556060820151816003019080519060200190611304929190611588565b509050505050565b6060808390506060839050606081518351016040519080825280601f01601f1916602001820160405280156113505781602001600182028038833980820191505090505b5090506060819050600080905060008090505b855181101561141657858181518110151561137a57fe5b9060200101517f010000000000000000000000000000000000000000000000000000000000000090047f01000000000000000000000000000000000000000000000000000000000000000283838060010194508151811015156113d957fe5b9060200101907effffffffffffffffffffffffffffffffffffffffffffffffffffffffffffff1916908160001a9053508080600101915050611363565b5060008090505b84518110156114d057848181518110151561143457fe5b9060200101517f010000000000000000000000000000000000000000000000000000000000000090047f010000000000000000000000000000000000000000000000000000000000000002838380600101945081518110151561149357fe5b9060200101907effffffffffffffffffffffffffffffffffffffffffffffffffffffffffffff1916908160001a905350808060010191505061141d565b50819550505050505092915050565b608060405190810160405280600081526020016060815260200160008152602001606081525090565b828054600181600116156101000203166002900490600052602060002090601f016020900481019282601f1061154957805160ff1916838001178555611577565b82800160010185558215611577579182015b8281111561157657825182559160200191906001019061155b565b5b5090506115849190611608565b5090565b828054600181600116156101000203166002900490600052602060002090601f016020900481019282601f106115c957805160ff19168380011785556115f7565b828001600101855582156115f7579182015b828111156115f65782518255916020019190600101906115db565b5b5090506116049190611608565b5090565b61162a91905b8082111561162657600081600090555060010161160e565b5090565b9056fea165627a7a7230582001bdee67e4af18e95ea4159eb5390cbc2d9179318112e7b36b7681b04598bdbd0029",
  "source": "pragma solidity 0.5.0;\n\ncontract SimpleStorage {\n\n//  uint256 masterAddress = 0x7CacEE641aa61292c6035906384811186B5F3A2D;\n\n\n  string ipfsHash;\n  // Model a Candidate\n  struct User {\n      uint id;\n      string userIpfsHash;\n      uint friendsCount;\n      string friends;\n  }\n\n  struct Post{\n    string postIpfsHash;\n    string date;\n    address author;\n  }\n\n  uint public postCount;\n\n  // Store Candidates Count\n  uint public userCount;\n\n  mapping(uint256 => User) public users;\n\n  mapping(uint => Post) public posts;\n    // Store Candidates Count\n    uint public candidatesCount;\n\n  function set(string memory x) public {\n    ipfsHash = x;\n  }\n\n  function get() public view returns (string memory) {\n    return ipfsHash;\n  }\n\n  function addNewUser(string memory _userIpfsHash, uint256 _address) public{\n    userCount ++;\n    users[_address] = User(userCount, _userIpfsHash , 0, '');\n//    users[_address] = User(userCount, _userIpfsHash , _friends);\n  }\n\n  function updateUser(string memory _userIpfsHash, uint256 _address) public{\n    User storage  u = users[_address];\n//    users[_address] = User(userCount, _userIpfsHash, u.friendsCount, u.friends);\n    u.userIpfsHash = _userIpfsHash;\n//    users[_address] = User(userCount, _userIpfsHash, u.friends);\n  }\n\n  function getUserByAddress(uint256 _address) public returns (uint id, string memory userIpfsHash, string memory friends) {\n    // copy the data into memory\n    User memory u = users[_address];\n\n    // break the struct's members out into a tuple\n    // in the same order that they appear in the struct\n    return (u.id, u.userIpfsHash, u.friends);\n  }\n\n\n  function addNewPost(string memory _postIpfsHash, string memory _date) public{\n    postCount++;\n    posts[postCount] = Post(_postIpfsHash, _date, msg.sender);\n  }\n\n//  function getMasterAddress() public returns (uint256 masterAddress){\n//    return masterAddress;\n//  }\n\n  function addFriend(uint256 _address, string memory _friend) public{\n    User storage  u = users[_address];\n//    f.push(_friend);\n    u.friendsCount++;\n    u.friends =  concat(u.friends,';');\n    u.friends =  concat(u.friends,_friend);\n//    users[_address] = User(userCount, u.userIpfsHash, u.friendsCount, u.friends);\n//    users[_address] = User(userCount, u.userIpfsHash, u.friends);\n  }\n\n  function concat(string memory _a, string memory _b)private view returns (string memory) {\n    bytes memory bytes_a = bytes(_a);\n    bytes memory bytes_b = bytes(_b);\n    string memory length_ab = new string(bytes_a.length + bytes_b.length);\n    bytes memory bytes_c = bytes(length_ab);\n    uint k = 0;\n    for (uint i = 0; i < bytes_a.length; i++) bytes_c[k++] = bytes_a[i];\n    for (uint i = 0; i < bytes_b.length; i++) bytes_c[k++] = bytes_b[i];\n    return string(bytes_c);\n  }\n}\n",
  "sourcePath": "C:/Users/mvv/Desktop/Research/Project/AngulerTruffle/contracts/SimpleStorage.sol",
  "compiler": {
    "name": "solc",
    "version": "0.5.0+commit.1d4f565a.Emscripten.clang"
  },
  "schemaVersion": "3.0.1",
  "updatedAt": "2019-02-22T08:50:00.096Z",
  "devdoc": {
    "methods": {}
  },
  "userdoc": {
    "methods": {}
  }
}