{
  "contractName": "SimpleStorage",
  "abi": [
    {
      "constant": true,
      "inputs": [],
      "name": "userCount",
      "outputs": [
        {
          "name": "",
          "type": "uint256"
        }
      ],
      "payable": false,
      "stateMutability": "view",
      "type": "function",
      "signature": "0x07973ccf"
    },
    {
      "constant": true,
      "inputs": [],
      "name": "candidatesCount",
      "outputs": [
        {
          "name": "",
          "type": "uint256"
        }
      ],
      "payable": false,
      "stateMutability": "view",
      "type": "function",
      "signature": "0x2d35a8a2"
    },
    {
      "constant": true,
      "inputs": [
        {
          "name": "",
          "type": "uint256"
        }
      ],
      "name": "users",
      "outputs": [
        {
          "name": "id",
          "type": "uint256"
        },
        {
          "name": "userIpfsHash",
          "type": "string"
        }
      ],
      "payable": false,
      "stateMutability": "view",
      "type": "function",
      "signature": "0x365b98b2"
    },
    {
      "constant": false,
      "inputs": [
        {
          "name": "x",
          "type": "string"
        }
      ],
      "name": "set",
      "outputs": [],
      "payable": false,
      "stateMutability": "nonpayable",
      "type": "function",
      "signature": "0x4ed3885e"
    },
    {
      "constant": true,
      "inputs": [],
      "name": "get",
      "outputs": [
        {
          "name": "",
          "type": "string"
        }
      ],
      "payable": false,
      "stateMutability": "view",
      "type": "function",
      "signature": "0x6d4ce63c"
    },
    {
      "constant": false,
      "inputs": [
        {
          "name": "_userIpfsHash",
          "type": "string"
        },
        {
          "name": "_address",
          "type": "uint256"
        }
      ],
      "name": "addNewUser",
      "outputs": [],
      "payable": false,
      "stateMutability": "nonpayable",
      "type": "function",
      "signature": "0xad3b5577"
    },
    {
      "constant": false,
      "inputs": [
        {
          "name": "_address",
          "type": "uint256"
        }
      ],
      "name": "getUserByAddress",
      "outputs": [
        {
          "name": "id",
          "type": "uint256"
        },
        {
          "name": "userIpfsHash",
          "type": "string"
        }
      ],
      "payable": false,
      "stateMutability": "nonpayable",
      "type": "function",
      "signature": "0x2ab59520"
    }
  ],
  "bytecode": "0x608060405234801561001057600080fd5b506108c6806100206000396000f3fe608060405260043610610083576000357c0100000000000000000000000000000000000000000000000000000000900463ffffffff16806307973ccf146100885780632ab59520146100b35780632d35a8a21461016e578063365b98b2146101995780634ed3885e146102545780636d4ce63c1461031c578063ad3b5577146103ac575b600080fd5b34801561009457600080fd5b5061009d61047e565b6040518082815260200191505060405180910390f35b3480156100bf57600080fd5b506100ec600480360360208110156100d657600080fd5b8101908080359060200190929190505050610484565b6040518083815260200180602001828103825283818151815260200191508051906020019080838360005b83811015610132578082015181840152602081019050610117565b50505050905090810190601f16801561015f5780820380516001836020036101000a031916815260200191505b50935050505060405180910390f35b34801561017a57600080fd5b50610183610573565b6040518082815260200191505060405180910390f35b3480156101a557600080fd5b506101d2600480360360208110156101bc57600080fd5b8101908080359060200190929190505050610579565b6040518083815260200180602001828103825283818151815260200191508051906020019080838360005b838110156102185780820151818401526020810190506101fd565b50505050905090810190601f1680156102455780820380516001836020036101000a031916815260200191505b50935050505060405180910390f35b34801561026057600080fd5b5061031a6004803603602081101561027757600080fd5b810190808035906020019064010000000081111561029457600080fd5b8201836020820111156102a657600080fd5b803590602001918460018302840111640100000000831117156102c857600080fd5b91908080601f016020809104026020016040519081016040528093929190818152602001838380828437600081840152601f19601f820116905080830192505050505050509192919290505050610635565b005b34801561032857600080fd5b5061033161064f565b6040518080602001828103825283818151815260200191508051906020019080838360005b83811015610371578082015181840152602081019050610356565b50505050905090810190601f16801561039e5780820380516001836020036101000a031916815260200191505b509250505060405180910390f35b3480156103b857600080fd5b5061047c600480360360408110156103cf57600080fd5b81019080803590602001906401000000008111156103ec57600080fd5b8201836020820111156103fe57600080fd5b8035906020019184600183028401116401000000008311171561042057600080fd5b91908080601f016020809104026020016040519081016040528093929190818152602001838380828437600081840152601f19601f820116905080830192505050505050509192919290803590602001909291905050506106f1565b005b60015481565b6000606061049061075b565b6002600085815260200190815260200160002060408051908101604052908160008201548152602001600182018054600181600116156101000203166002900480601f0160208091040260200160405190810160405280929190818152602001828054600181600116156101000203166002900480156105515780601f1061052657610100808354040283529160200191610551565b820191906000526020600020905b81548152906001019060200180831161053457829003601f168201915b5050505050815250509050806000015181602001518090509250925050915091565b60035481565b6002602052806000526040600020600091509050806000015490806001018054600181600116156101000203166002900480601f01602080910402602001604051908101604052809291908181526020018280546001816001161561010002031660029004801561062b5780601f106106005761010080835404028352916020019161062b565b820191906000526020600020905b81548152906001019060200180831161060e57829003601f168201915b5050505050905082565b806000908051906020019061064b929190610775565b5050565b606060008054600181600116156101000203166002900480601f0160208091040260200160405190810160405280929190818152602001828054600181600116156101000203166002900480156106e75780601f106106bc576101008083540402835291602001916106e7565b820191906000526020600020905b8154815290600101906020018083116106ca57829003601f168201915b5050505050905090565b6001600081548092919060010191905055506040805190810160405280600154815260200183815250600260008381526020019081526020016000206000820151816000015560208201518160010190805190602001906107539291906107f5565b509050505050565b604080519081016040528060008152602001606081525090565b828054600181600116156101000203166002900490600052602060002090601f016020900481019282601f106107b657805160ff19168380011785556107e4565b828001600101855582156107e4579182015b828111156107e35782518255916020019190600101906107c8565b5b5090506107f19190610875565b5090565b828054600181600116156101000203166002900490600052602060002090601f016020900481019282601f1061083657805160ff1916838001178555610864565b82800160010185558215610864579182015b82811115610863578251825591602001919060010190610848565b5b5090506108719190610875565b5090565b61089791905b8082111561089357600081600090555060010161087b565b5090565b9056fea165627a7a723058205bc9b3a2c573ecbe79cdf24445e6828e79477184f27df5faf8b1541b3ba916d90029",
  "source": "pragma solidity 0.5.0;\n\ncontract SimpleStorage {\n  string ipfsHash;\n  // Model a Candidate\n  struct User {\n      uint id;\n      string userIpfsHash;\n  }\n\n  // Store Candidates Count\n  uint public userCount;\n\n  mapping(uint256 => User) public users;\n    // Store Candidates Count\n    uint public candidatesCount;\n\n  function set(string memory x) public {\n    ipfsHash = x;\n  }\n\n  function get() public view returns (string memory) {\n    return ipfsHash;\n  }\n\n  function addNewUser(string memory _userIpfsHash, uint256 _address) public{\n    userCount ++;\n    users[_address] = User(userCount, _userIpfsHash);\n  }\n\n  function getUserByAddress(uint256 _address) public returns (uint id, string memory userIpfsHash) {\n    // copy the data into memory\n    User memory u = users[_address];\n\n    // break the struct's members out into a tuple\n    // in the same order that they appear in the struct\n    return (u.id, u.userIpfsHash);\n  }\n}\n",
  "sourcePath": "C:/Users/mvv/Desktop/Research/Project/AngulerTruffle/contracts/SimpleStorage.sol",
  "compiler": {
    "name": "solc",
    "version": "0.5.0+commit.1d4f565a.Emscripten.clang"
  },
  "schemaVersion": "3.0.1",
  "updatedAt": "2019-02-03T09:09:43.157Z",
  "devdoc": {
    "methods": {}
  },
  "userdoc": {
    "methods": {}
  }
}