{
  "contractName": "SimpleStorage",
  "abi": [
    {
      "constant": true,
      "inputs": [],
      "name": "userCount",
      "outputs": [
        {
          "name": "",
          "type": "uint256"
        }
      ],
      "payable": false,
      "stateMutability": "view",
      "type": "function",
      "signature": "0x07973ccf"
    },
    {
      "constant": true,
      "inputs": [
        {
          "name": "",
          "type": "uint256"
        }
      ],
      "name": "posts",
      "outputs": [
        {
          "name": "postIpfsHash",
          "type": "string"
        },
        {
          "name": "date",
          "type": "string"
        },
        {
          "name": "author",
          "type": "address"
        }
      ],
      "payable": false,
      "stateMutability": "view",
      "type": "function",
      "signature": "0x0b1e7f83"
    },
    {
      "constant": true,
      "inputs": [],
      "name": "postCount",
      "outputs": [
        {
          "name": "",
          "type": "uint256"
        }
      ],
      "payable": false,
      "stateMutability": "view",
      "type": "function",
      "signature": "0x17906c2e"
    },
    {
      "constant": true,
      "inputs": [],
      "name": "candidatesCount",
      "outputs": [
        {
          "name": "",
          "type": "uint256"
        }
      ],
      "payable": false,
      "stateMutability": "view",
      "type": "function",
      "signature": "0x2d35a8a2"
    },
    {
      "constant": true,
      "inputs": [
        {
          "name": "",
          "type": "uint256"
        }
      ],
      "name": "users",
      "outputs": [
        {
          "name": "id",
          "type": "uint256"
        },
        {
          "name": "userIpfsHash",
          "type": "string"
        }
      ],
      "payable": false,
      "stateMutability": "view",
      "type": "function",
      "signature": "0x365b98b2"
    },
    {
      "constant": false,
      "inputs": [
        {
          "name": "x",
          "type": "string"
        }
      ],
      "name": "set",
      "outputs": [],
      "payable": false,
      "stateMutability": "nonpayable",
      "type": "function",
      "signature": "0x4ed3885e"
    },
    {
      "constant": true,
      "inputs": [],
      "name": "get",
      "outputs": [
        {
          "name": "",
          "type": "string"
        }
      ],
      "payable": false,
      "stateMutability": "view",
      "type": "function",
      "signature": "0x6d4ce63c"
    },
    {
      "constant": false,
      "inputs": [
        {
          "name": "_userIpfsHash",
          "type": "string"
        },
        {
          "name": "_address",
          "type": "uint256"
        }
      ],
      "name": "addNewUser",
      "outputs": [],
      "payable": false,
      "stateMutability": "nonpayable",
      "type": "function",
      "signature": "0xad3b5577"
    },
    {
      "constant": false,
      "inputs": [
        {
          "name": "_address",
          "type": "uint256"
        }
      ],
      "name": "getUserByAddress",
      "outputs": [
        {
          "name": "id",
          "type": "uint256"
        },
        {
          "name": "userIpfsHash",
          "type": "string"
        }
      ],
      "payable": false,
      "stateMutability": "nonpayable",
      "type": "function",
      "signature": "0x2ab59520"
    },
    {
      "constant": false,
      "inputs": [
        {
          "name": "_postIpfsHash",
          "type": "string"
        },
        {
          "name": "_date",
          "type": "string"
        }
      ],
      "name": "addNewPost",
      "outputs": [],
      "payable": false,
      "stateMutability": "nonpayable",
      "type": "function",
      "signature": "0x3a3a1ec5"
    }
  ],
  "bytecode": "0x608060405234801561001057600080fd5b50610e25806100206000396000f3fe6080604052600436106100a4576000357c0100000000000000000000000000000000000000000000000000000000900463ffffffff16806307973ccf146100a95780630b1e7f83146100d457806317906c2e146102275780632ab59520146102525780632d35a8a21461030d578063365b98b2146103385780633a3a1ec5146103f35780634ed3885e146105525780636d4ce63c1461061a578063ad3b5577146106aa575b600080fd5b3480156100b557600080fd5b506100be61077c565b6040518082815260200191505060405180910390f35b3480156100e057600080fd5b5061010d600480360360208110156100f757600080fd5b8101908080359060200190929190505050610782565b6040518080602001806020018473ffffffffffffffffffffffffffffffffffffffff1673ffffffffffffffffffffffffffffffffffffffff168152602001838103835286818151815260200191508051906020019080838360005b83811015610183578082015181840152602081019050610168565b50505050905090810190601f1680156101b05780820380516001836020036101000a031916815260200191505b50838103825285818151815260200191508051906020019080838360005b838110156101e95780820151818401526020810190506101ce565b50505050905090810190601f1680156102165780820380516001836020036101000a031916815260200191505b509550505050505060405180910390f35b34801561023357600080fd5b5061023c6108fc565b6040518082815260200191505060405180910390f35b34801561025e57600080fd5b5061028b6004803603602081101561027557600080fd5b8101908080359060200190929190505050610902565b6040518083815260200180602001828103825283818151815260200191508051906020019080838360005b838110156102d15780820151818401526020810190506102b6565b50505050905090810190601f1680156102fe5780820380516001836020036101000a031916815260200191505b50935050505060405180910390f35b34801561031957600080fd5b506103226109f1565b6040518082815260200191505060405180910390f35b34801561034457600080fd5b506103716004803603602081101561035b57600080fd5b81019080803590602001909291905050506109f7565b6040518083815260200180602001828103825283818151815260200191508051906020019080838360005b838110156103b757808201518184015260208101905061039c565b50505050905090810190601f1680156103e45780820380516001836020036101000a031916815260200191505b50935050505060405180910390f35b3480156103ff57600080fd5b506105506004803603604081101561041657600080fd5b810190808035906020019064010000000081111561043357600080fd5b82018360208201111561044557600080fd5b8035906020019184600183028401116401000000008311171561046757600080fd5b91908080601f016020809104026020016040519081016040528093929190818152602001838380828437600081840152601f19601f820116905080830192505050505050509192919290803590602001906401000000008111156104ca57600080fd5b8201836020820111156104dc57600080fd5b803590602001918460018302840111640100000000831117156104fe57600080fd5b91908080601f016020809104026020016040519081016040528093929190818152602001838380828437600081840152601f19601f820116905080830192505050505050509192919290505050610ab3565b005b34801561055e57600080fd5b506106186004803603602081101561057557600080fd5b810190808035906020019064010000000081111561059257600080fd5b8201836020820111156105a457600080fd5b803590602001918460018302840111640100000000831117156105c657600080fd5b91908080601f016020809104026020016040519081016040528093929190818152602001838380828437600081840152601f19601f820116905080830192505050505050509192919290505050610b94565b005b34801561062657600080fd5b5061062f610bae565b6040518080602001828103825283818151815260200191508051906020019080838360005b8381101561066f578082015181840152602081019050610654565b50505050905090810190601f16801561069c5780820380516001836020036101000a031916815260200191505b509250505060405180910390f35b3480156106b657600080fd5b5061077a600480360360408110156106cd57600080fd5b81019080803590602001906401000000008111156106ea57600080fd5b8201836020820111156106fc57600080fd5b8035906020019184600183028401116401000000008311171561071e57600080fd5b91908080601f016020809104026020016040519081016040528093929190818152602001838380828437600081840152601f19601f82011690508083019250505050505050919291929080359060200190929190505050610c50565b005b60025481565b6004602052806000526040600020600091509050806000018054600181600116156101000203166002900480601f01602080910402602001604051908101604052809291908181526020018280546001816001161561010002031660029004801561082e5780601f106108035761010080835404028352916020019161082e565b820191906000526020600020905b81548152906001019060200180831161081157829003601f168201915b505050505090806001018054600181600116156101000203166002900480601f0160208091040260200160405190810160405280929190818152602001828054600181600116156101000203166002900480156108cc5780601f106108a1576101008083540402835291602001916108cc565b820191906000526020600020905b8154815290600101906020018083116108af57829003601f168201915b5050505050908060020160009054906101000a900473ffffffffffffffffffffffffffffffffffffffff16905083565b60015481565b6000606061090e610cba565b6003600085815260200190815260200160002060408051908101604052908160008201548152602001600182018054600181600116156101000203166002900480601f0160208091040260200160405190810160405280929190818152602001828054600181600116156101000203166002900480156109cf5780601f106109a4576101008083540402835291602001916109cf565b820191906000526020600020905b8154815290600101906020018083116109b257829003601f168201915b5050505050815250509050806000015181602001518090509250925050915091565b60055481565b6003602052806000526040600020600091509050806000015490806001018054600181600116156101000203166002900480601f016020809104026020016040519081016040528092919081815260200182805460018160011615610100020316600290048015610aa95780601f10610a7e57610100808354040283529160200191610aa9565b820191906000526020600020905b815481529060010190602001808311610a8c57829003601f168201915b5050505050905082565b6001600081548092919060010191905055506060604051908101604052808381526020018281526020013373ffffffffffffffffffffffffffffffffffffffff168152506004600060015481526020019081526020016000206000820151816000019080519060200190610b28929190610cd4565b506020820151816001019080519060200190610b45929190610cd4565b5060408201518160020160006101000a81548173ffffffffffffffffffffffffffffffffffffffff021916908373ffffffffffffffffffffffffffffffffffffffff1602179055509050505050565b8060009080519060200190610baa929190610d54565b5050565b606060008054600181600116156101000203166002900480601f016020809104026020016040519081016040528092919081815260200182805460018160011615610100020316600290048015610c465780601f10610c1b57610100808354040283529160200191610c46565b820191906000526020600020905b815481529060010190602001808311610c2957829003601f168201915b5050505050905090565b600260008154809291906001019190505550604080519081016040528060025481526020018381525060036000838152602001908152602001600020600082015181600001556020820151816001019080519060200190610cb2929190610cd4565b509050505050565b604080519081016040528060008152602001606081525090565b828054600181600116156101000203166002900490600052602060002090601f016020900481019282601f10610d1557805160ff1916838001178555610d43565b82800160010185558215610d43579182015b82811115610d42578251825591602001919060010190610d27565b5b509050610d509190610dd4565b5090565b828054600181600116156101000203166002900490600052602060002090601f016020900481019282601f10610d9557805160ff1916838001178555610dc3565b82800160010185558215610dc3579182015b82811115610dc2578251825591602001919060010190610da7565b5b509050610dd09190610dd4565b5090565b610df691905b80821115610df2576000816000905550600101610dda565b5090565b9056fea165627a7a72305820711e672db587317ad77a955e10e0cd6ae128fac6255d4430a038cf4c7e47403e0029",
  "source": "pragma solidity 0.5.0;\n\ncontract SimpleStorage {\n\n//  uint256 masterAddress = 0x7CacEE641aa61292c6035906384811186B5F3A2D;\n\n  string ipfsHash;\n  // Model a Candidate\n  struct User {\n      uint id;\n      string userIpfsHash;\n  }\n\n  struct Post{\n    string postIpfsHash;\n    string date;\n    address author;\n  }\n\n  uint public postCount;\n\n  // Store Candidates Count\n  uint public userCount;\n\n  mapping(uint256 => User) public users;\n\n  mapping(uint => Post) public posts;\n    // Store Candidates Count\n    uint public candidatesCount;\n\n  function set(string memory x) public {\n    ipfsHash = x;\n  }\n\n  function get() public view returns (string memory) {\n    return ipfsHash;\n  }\n\n  function addNewUser(string memory _userIpfsHash, uint256 _address) public{\n    userCount ++;\n    users[_address] = User(userCount, _userIpfsHash);\n  }\n\n  function getUserByAddress(uint256 _address) public returns (uint id, string memory userIpfsHash) {\n    // copy the data into memory\n    User memory u = users[_address];\n\n    // break the struct's members out into a tuple\n    // in the same order that they appear in the struct\n    return (u.id, u.userIpfsHash);\n  }\n\n\n  function addNewPost(string memory _postIpfsHash, string memory _date) public{\n    postCount++;\n    posts[postCount] = Post(_postIpfsHash, _date, msg.sender);\n  }\n\n//  function getMasterAddress() public returns (uint256 masterAddress){\n//    return masterAddress;\n//  }\n}\n",
  "sourcePath": "C:/Users/mvv/Desktop/Research/Project/AngulerTruffle/contracts/SimpleStorage.sol",
  "compiler": {
    "name": "solc",
    "version": "0.5.0+commit.1d4f565a.Emscripten.clang"
  },
  "schemaVersion": "3.0.1",
  "updatedAt": "2019-02-19T17:53:20.338Z",
  "devdoc": {
    "methods": {}
  },
  "userdoc": {
    "methods": {}
  }
}